{
  "contractName": "TicketNFT",
  "abi": [
    {
      "inputs": [
        {
          "internalType": "string",
          "name": "_tokenURI",
          "type": "string"
        }
      ],
      "name": "createTokenURI",
      "outputs": [
        {
          "internalType": "uint256",
          "name": "",
          "type": "uint256"
        },
        {
          "internalType": "string",
          "name": "",
          "type": "string"
        }
      ],
      "stateMutability": "nonpayable",
      "type": "function"
    },
    {
      "inputs": [
        {
          "internalType": "uint256",
          "name": "tokenId",
          "type": "uint256"
        },
        {
          "internalType": "string",
          "name": "_tokenURI",
          "type": "string"
        }
      ],
      "name": "setTokenURI",
      "outputs": [],
      "stateMutability": "nonpayable",
      "type": "function"
    },
    {
      "inputs": [
        {
          "internalType": "uint256",
          "name": "tokenId",
          "type": "uint256"
        }
      ],
      "name": "getTokenURI",
      "outputs": [
        {
          "internalType": "string",
          "name": "",
          "type": "string"
        }
      ],
      "stateMutability": "view",
      "type": "function",
      "constant": true
    }
  ],
  "bytecode": "0x608060405234801561001057600080fd5b506106ef806100206000396000f3fe608060405234801561001057600080fd5b50600436106100415760003560e01c8063162094c4146100465780633bb3a24d146100625780639f4c7fdb14610092575b600080fd5b610060600480360381019061005b9190610425565b6100c3565b005b61007c60048036038101906100779190610481565b6100ef565b6040516100899190610536565b60405180910390f35b6100ac60048036038101906100a79190610558565b61019a565b6040516100ba9291906105b0565b60405180910390f35b806001600084815260200190815260200160002090805190602001906100ea9291906101f2565b505050565b606060006001600084815260200190815260200160002080546101119061060f565b80601f016020809104026020016040519081016040528092919081815260200182805461013d9061060f565b801561018a5780601f1061015f5761010080835404028352916020019161018a565b820191906000526020600020905b81548152906001019060200180831161016d57829003601f168201915b5050505050905080915050919050565b600060606000808054905090506101b181856100c3565b600081806101be90610670565b9250908060018154018082558091505060019003906000526020600020016000909190919091505580849250925050915091565b8280546101fe9061060f565b90600052602060002090601f0160209004810192826102205760008555610267565b82601f1061023957805160ff1916838001178555610267565b82800160010185558215610267579182015b8281111561026657825182559160200191906001019061024b565b5b5090506102749190610278565b5090565b5b80821115610291576000816000905550600101610279565b5090565b6000604051905090565b600080fd5b600080fd5b6000819050919050565b6102bc816102a9565b81146102c757600080fd5b50565b6000813590506102d9816102b3565b92915050565b600080fd5b600080fd5b6000601f19601f8301169050919050565b7f4e487b7100000000000000000000000000000000000000000000000000000000600052604160045260246000fd5b610332826102e9565b810181811067ffffffffffffffff82111715610351576103506102fa565b5b80604052505050565b6000610364610295565b90506103708282610329565b919050565b600067ffffffffffffffff8211156103905761038f6102fa565b5b610399826102e9565b9050602081019050919050565b82818337600083830152505050565b60006103c86103c384610375565b61035a565b9050828152602081018484840111156103e4576103e36102e4565b5b6103ef8482856103a6565b509392505050565b600082601f83011261040c5761040b6102df565b5b813561041c8482602086016103b5565b91505092915050565b6000806040838503121561043c5761043b61029f565b5b600061044a858286016102ca565b925050602083013567ffffffffffffffff81111561046b5761046a6102a4565b5b610477858286016103f7565b9150509250929050565b6000602082840312156104975761049661029f565b5b60006104a5848285016102ca565b91505092915050565b600081519050919050565b600082825260208201905092915050565b60005b838110156104e85780820151818401526020810190506104cd565b838111156104f7576000848401525b50505050565b6000610508826104ae565b61051281856104b9565b93506105228185602086016104ca565b61052b816102e9565b840191505092915050565b6000602082019050818103600083015261055081846104fd565b905092915050565b60006020828403121561056e5761056d61029f565b5b600082013567ffffffffffffffff81111561058c5761058b6102a4565b5b610598848285016103f7565b91505092915050565b6105aa816102a9565b82525050565b60006040820190506105c560008301856105a1565b81810360208301526105d781846104fd565b90509392505050565b7f4e487b7100000000000000000000000000000000000000000000000000000000600052602260045260246000fd5b6000600282049050600182168061062757607f821691505b6020821081141561063b5761063a6105e0565b5b50919050565b7f4e487b7100000000000000000000000000000000000000000000000000000000600052601160045260246000fd5b600061067b826102a9565b91507fffffffffffffffffffffffffffffffffffffffffffffffffffffffffffffffff8214156106ae576106ad610641565b5b60018201905091905056fea2646970667358221220c19bcf06b74e6eb995e97d960d7eabf7d679a0b6098afdfba253b11b8cf512ea64736f6c634300080a0033",
  "immutableReferences": {},
  "source": "// SPDX-License-Identifier: MIT\r\n\r\npragma solidity >=0.4.22<0.9.0;\r\n\r\ncontract TicketNFT {\r\n  uint256[] private tokensIds;\r\n  mapping(uint256 => string) private _tokenURIs;\r\n  \r\n  function createTokenURI(string memory _tokenURI) public returns(uint256, string memory) {\r\n    uint256 currentTokenId = tokensIds.length;\r\n    setTokenURI(currentTokenId, _tokenURI);\r\n    tokensIds.push(currentTokenId++);\r\n    return (currentTokenId, _tokenURI);\r\n  }\r\n\r\n  function setTokenURI(uint256 tokenId, string memory _tokenURI) public {\r\n    _tokenURIs[tokenId] = _tokenURI;\r\n  }\r\n\r\n  function getTokenURI(uint256 tokenId) public view returns(string memory) {\r\n    string memory _tokenURI = _tokenURIs[tokenId];\r\n    return _tokenURI;\r\n  }\r\n}",
  "sourcePath": "E:\\Medium\\NFT marketplace\\contracts\\CreateNFT.sol",
  "compiler": {
    "name": "solc",
    "version": "0.8.10+commit.fc410830.Emscripten.clang"
  },
  "schemaVersion": "3.4.4",
  "updatedAt": "2022-05-28T02:57:48.815Z",
  "networkType": "ethereum",
  "devdoc": {
    "kind": "dev",
    "methods": {},
    "version": 1
  },
  "userdoc": {
    "kind": "user",
    "methods": {},
    "version": 1
  }
}